:100000000C9434000C943E000C943E000C943E0082
:100010000C943E000C943E000C943E000C943E0068
:100020000C943E000C943E000C943E000C943E0058
:100030000C943E000C943E000C943E000C943E0048
:100040000C943E000C943E000C943E000C943E0038
:100050000C943E000C943E000C943E000C943E0028
:100060000C943E000C943E0011241FBECFEFD8E04C
:10007000DEBFCDBF0E9440000C9450000C940000E5
:1000800001E004B905B926E033E14EEA4A95F1F7FB
:100090003A95E1F72A95D1F705B1009505B9F3CF67
:0400A000F894FFCF02
:00000001FF
