:10000000C6C0E0C0DFC0DEC0DDC0DCC0DBC0DAC01F
:10001000D9C0D8C0D7C0D6C0D5C0D4C0D3C0D2C034
:10002000D1C0D0C0CFC0BAD1E2ADAD4895DF615DDF
:10003000A7B6E6F7B3CB0FDEB9C9AAC3B079BD1333
:10004000474C5C53DD9C34559789988536DFBF3625
:100050002DE3DADA4BDAAFBD65B8EAFC91E7702A36
:100060004A13D38EF93CA5D6A1F4D2D25335E49DE0
:100070006957B02CDE2905C1D780EB7A25E68B4283
:1000800088748E611B102FB58A17FCB83999883592
:10009000527B88356AD2324FF2115FEEE821F5E3E8
:1000A000487E85725976F558A7BDE661444E2464B2
:1000B000A938E2002D2EF3FEBE6BA4EA991FB1828F
:1000C000E2D433BA9E023AB7C70866DD86D02C5A0E
:1000D000D97633BADE962C8503968B106BB252928A
:1000E000CD132B8A3338D593CA3314E0BB7BF992F6
:1000F000393CB6C6BF652F77DFF5679E05BAB752A4
:100100003F679CBD87AAEE92A6E9B6E703FF22EE01
:100110007130E5678ABBB1FAFCB01F27EC66EBA82B
:100120005EF5102CB3A483FFE7E6DAD4A692FD03B4
:1001300003F9C07F92779E1F47884241FAECE9DFBE
:10014000202C872C091A646B01D460016001E947F7
:100150008A374D85D6FAE5B66D37AF491681D78017
:1001600086320678B30FB30FB30F9BD377A177A175
:10017000C63A6AE463326332633239584A684A687D
:10018000CF44F93C3FD844454445F93CA69211245C
:100190001FBECFE5D4E0DEBFCDBF11E0A0E6B0E0EA
:1001A000E8EBFEE002C005900D92A031B107D9F74F
:1001B00021E0A0E1B1E001C01D92A135B207E1F755
:1001C0004FD078C61DCFCF93DF931F92CDB7DEB748
:1001D00089838BE290E0FC018081882F90E080721F
:1001E0009927892BB1F38CE290E02981FC012083CF
:1001F00000000F90DF91CF910895CF93DF9300D04F
:100200001F92CDB7DEB789837B836A838981DBDF69
:1002100080E090E00F900F900F90DF91CF910895C4
:10022000CF93DF93CDB7DEB78BE290E0FC01108275
:1002300080E490E0FC01108289E290E028E0FC017B
:1002400020838AE290E028E0FC01208380E490E0B3
:1002500026E8FC01208380E690E0DF91CF910895AD
:10026000CF93DF93CDB7DEB762970FB6F894DEBFBA
:100270000FBECDBFD5DF90934E0180934D01F89412
:100280008CE990E02ED381E390E0FC01108219828A
:1002900082E390E02981FC01208382E390E0FC016D
:1002A00090818981981731F088EA90E01AD380E034
:1002B00090E096C08981815089838981882341F7A4
:1002C00010926E001A828EE992E09C838B8386E204
:1002D00090E09E838D8370C08B819C818AD09887AB
:1002E0008F838D819E819C012E5F3F4F3E832D83A6
:1002F0009A87898789859A85FC0125913491CF0158
:100300003C872B879A8789878B859C859E878D87DD
:1003100088858F938F818F938AEC90E0892F8F93BC
:100320008AEC90E08F93C4D20F900F900F900F90B3
:100330002F8138858D859E8528173907D9F08B81C7
:100340009C81880F991F2E852F932D852F93292F00
:100350002F938F9382ED90E0892F8F9382ED90E021
:100360008F93A6D20F900F900F900F900F900F9039
:1003700081E08A838AE090E0AED28B819C810296F4
:100380009C838B838B819C810196880F991F988B0E
:100390008F878F859889FC0125913491CF013A8B05
:1003A000298B988B8F8789899A89892B29F48B814E
:1003B0009C8102969C838B8388E394E02B813C8113
:1003C0002817390708F488CF8A81882321F48BEF16
:1003D00090E087D203C085E091E083D280E090E096
:1003E00062960FB6F894DEBF0FBECDBFDF91CF91FE
:1003F00008958093490190934A01E1E0F0E0019073
:100400000F92EE31E1F7EDB7FEB7E0934101F093C3
:100410004201E0E0E0934301E0934401EFE6F0E0C5
:10042000E0934501F0934601CFE6D0E0C093470149
:10043000D09348011FC0C0914701D0914801E0917D
:100440004501F09146012196C83781F73196E8378A
:1004500039F7E0914101F0914201EDBFFEBFEEE1BD
:10046000F0E00F900292E130E1F78091430190912A
:1004700044010895A9911990C0E4D1E0CDBFDEBF39
:1004800001900F9201900F92C0914901D0914A01C1
:10049000CF93DF9301900F9201900F92C2E0D0E0D2
:1004A00001900992CC31E1F7C191C2BBC0914901E1
:1004B000D0914A01C65ED24038F0C191CFBFC19100
:1004C000D191EF91FF910895C191CFBF0F900F90FF
:1004D000A1E0B0E0C2E0D0E0E3E0F0E008950394F2
:1004E000FF93EF93DF93DFB7DF93D2B3DF93E0E0C7
:1004F000F0E0D191DF93ED31E1F7C0914301D0916C
:100500004401BF91CB0FDB1FCC0FDD1F10F0C75D87
:10051000DA40BDB7B034A9F7C0934301D09344018A
:100520008ACF00010203E3E2F5E00895D093400191
:10053000DFB7E352F5404E0F5F0FD2CFF4DFC8951F
:10054000F5CF0000F0DFA491F1CF0000ECDFA59122
:10055000EDCF000080911500C3CF00008C91C0CF7B
:100560008D91BECF8E91BCCFA881BACFA991B8CFC3
:10057000AA91B6CFAD81B4CFA081B2CFA191B0CFB7
:10058000A291AECFA581ACCF80931500A9CF00007A
:100590008C93A6CF8D93A4CF8E93A2CFA883A0CF08
:1005A000A9939ECFAA939CCFAD839ACFA08398CFD7
:1005B000A19396CFA29394CFA58392CFAF9390CFE0
:1005C0001F928ECFAF918CCF1F908ACF000088CF23
:1005D000A29586CF129484CFA19582CF119480CF1B
:1005E000AA957ECF1A947CCFA3957ACF139478CF17
:1005F000A09576CF109474CFA59572CF159470CF37
:10060000A6956ECF16946CCFA7956ACF179468CF36
:10061000CD0166CF010164CFA82F62CF132C60CF2C
:10062000A8175ECF13145CCFA8075ACF130458CF76
:10063000A80F56CF130C54CFA81F52CF131C50CF66
:10064000A81B4ECF13184CCFA80B4ACF130848CF86
:10065000A82346CF132044CFA82742CF132440CF4E
:10066000A82B3ECF13283CCFA0E03ACFA1E038CF53
:10067000AFE036CFA0E134CFAFE732CFA0E830CF44
:10068000A1E82ECFAFEF2CCFA0302ACFA13028CFBA
:10069000AF3026CFA03124CFAF3722CFA03820CF24
:1006A000A1381ECFAF3F1CCFA0501ACFA15018CFFA
:1006B000AF5016CFA05114CFAF5712CFA05810CFC4
:1006C000A1580ECFAF5F0CCFA0400ACFA14008CFFA
:1006D000AF4006CFA04104CFAF4702CFA04800CF24
:1006E000A148FECEAF4FFCCEA575FACEAA7AF8CEC1
:1006F000A565F6CEAA6AF4CE1196F2CE9096F0CE0B
:100700001197EECE9097ECCE7A2F709FE9CE000035
:100710007A2F7002E5CE00007A2F7003E1CE000040
:100720007A2F7803DDCE00007A2FF003D9CE0000B7
:100730007A2FF803D5CE00008894D2CE9894D0CEEC
:10074000A894CECEB894CCCEC894CACED894C8CEF5
:10075000E894C6CEF894C4CE0894C2CE1894C0CE05
:100760002894BECE3894BCCE4894BACE5894B8CE15
:100770006894B6CE7894B4CEA0F9B2CEA7F9B0CE34
:1007800010F8AECEA0FBACCEA7FBAACE10FAA8CE36
:100790009098A6CE9798A4CE909AA2CE979AA0CEE3
:1007A000A2B39ECE12B29CCEA2BB9ACE12BA98CE63
:1007B0009799109495CE00009799109491CE0000CF
:1007C000909B10948DCE0000979B109489CE0000D2
:1007D00010FC109485CE000017FC109481CE000010
:1007E00080FD10947DCE000010FE109479CE0000A4
:1007F00017FE109475CE000080FF109471CE00009B
:100800008A1310946DCE00001310109469CE00006E
:1008100078F566CE69F564CE5AF562CE4BF560CEBA
:100820003CF55ECE2DF55CCE1EF55ACE0FF558CEBA
:10083000F8F056CEE9F054CEDAF052CECBF050CEEE
:10084000BCF04ECEADF04CCE9EF04ACE8FF048CEEE
:1008500047CE46CE23D044CEECE3F4E0099400002A
:10086000E2E4F4E00995000005D03ACE04D038CE99
:10087000A09536CE08951895D0934001DFB7EC537C
:10088000F4402ECED0934001DFB7E254F4404E0F37
:100890005F0FFF91EF91E353F44022CED0934001DC
:1008A000DFB74E0F5F0FFF91EF91EB52F44018CE80
:1008B000A0E0B0E0EDE5F4E0D6C2AE014B5F5F4FE3
:1008C000FA0161917191AF0180914D0190914E01BA
:1008D00038D0E2E0E4C260914D0170914E0119D22E
:1008E00008950F931F93CF93DF93E0914D01F09103
:1008F0004E01238121FF1BC08C01D0E0C0E0F80134
:1009000081918F0160914D0170914E01DB0118962C
:10091000ED91FC911997882331F00995892B79F392
:10092000DFEFCFEFECCF8AE00995892B19F08FEF3D
:100930009FEF02C08D2F9C2FDF91CF911F910F91C0
:100940000895ABE0B0E0E6EAF4E07DC26C017B0123
:100950008A01FC0117821682838181FFBFC1CE010B
:1009600001963C01F6019381F70193FD859193FF78
:1009700081917F01882309F4ADC1853239F493FD5B
:10098000859193FF81917F01853221F4B60190E03A
:10099000C0D1E8CF912C212C312CFFE1F315D8F0F8
:1009A0008B3279F038F4803279F08332A1F4232D40
:1009B00020611DC08D3261F0803369F4232D2160E8
:1009C00016C0832D8260382EE32DE4603E2E2AC0AF
:1009D000F32DF8601DC037FC2DC020ED280F2A3004
:1009E00040F08E32B9F436FC75C1232D2064322ECE
:1009F00019C036FE06C08AE0989E200D1124922E62
:100A000011C0EAE02E9E200D1124222EF32DF0625B
:100A10003F2E08C08C3621F4832D8068382E02C00A
:100A2000883641F4F70193FD859193FF81917F0111
:100A30008111B3CF982F9F7D9554933028F40C5F8C
:100A40001F4F9FE399830DC0833631F0833771F0D8
:100A5000833509F055C020C0F801808189830E5F7D
:100A60001F4F88248394912C530112C02801F2E077
:100A70004F0E511CF801A080B18036FE03C0692DD5
:100A800070E002C06FEF7FEFC50138D14C018201E9
:100A9000F32DFF773F2E15C0280122E0420E511C96
:100AA000F801A080B18036FE03C0692D70E002C05D
:100AB0006FEF7FEFC50117D14C01F32DF0683F2E8A
:100AC000820133FC19C0822D90E088169906A0F4AB
:100AD000B60180E290E01DD12A94F5CFF50137FCF4
:100AE000859137FE81915F01B60190E012D121100E
:100AF0002A9421E0821A91088114910479F7E1C0C7
:100B0000843611F0893639F5F80137FE07C0608167
:100B10007181828193810C5F1F4F08C06081718158
:100B2000072E000C880B990B0E5F1F4FF32DFF76DD
:100B30003F2E97FF09C090958095709561957F4FE6
:100B40008F4F9F4FF0683F2E2AE030E0A3011DD168
:100B5000882E861844C0853731F4232D2F7EB22E7F
:100B60002AE030E025C0932D997FB92E8F36C1F051
:100B700018F4883579F0AEC0803719F0883721F045
:100B8000A9C0E92FE061BE2EB4FE0DC0FB2DF460BC
:100B9000BF2E09C034FE0AC0292F2660B22E06C01F
:100BA00028E030E005C020E130E002C020E132E082
:100BB000F801B7FE07C060817181828193810C5F6B
:100BC0001F4F06C06081718180E090E00E5F1F4F73
:100BD000A301DBD0882E8618FB2DFF773F2E36FE33
:100BE0000DC0232D2E7FA22E891458F434FE0BC085
:100BF00032FC09C0832D8E7EA82E05C0B82CA32CF4
:100C000003C0B82C01C0B92CA4FE0FC0FE01E80D32
:100C1000F11D8081803321F49A2D997EA92E09C07F
:100C2000A2FE06C0B394B39404C08A2D867809F05E
:100C3000B394A3FC10C0A0FE06C0B21480F4280C2C
:100C4000922C9B180DC0B21458F4B60180E290E0CB
:100C500060D0B394F8CFB21418F42B1802C0982CBB
:100C6000212CA4FE0FC0B60180E390E052D0A2FE7A
:100C700016C0A1FC03C088E790E002C088E590E0C0
:100C8000B6010CC08A2D867851F0A1FE02C08BE21D
:100C900001C080E2A7FC8DE2B60190E03AD0891451
:100CA00030F4B60180E390E034D09A94F8CF8A947F
:100CB000F301E80DF11D8081B60190E02AD081108A
:100CC000F6CF222009F44ECEB60180E290E021D08A
:100CD0002A94F7CFF6018681978102C08FEF9FEFAC
:100CE0002B96E2E1CCC0FC010590615070400110F0
:100CF000D8F7809590958E0F9F1F0895FC01615045
:100D0000704001900110D8F7809590958E0F9F1F2D
:100D100008950F931F93CF93DF93FB01238121FD50
:100D200003C08FEF9FEF2CC022FF16C04681578172
:100D3000248135814217530744F4A081B1819D017C
:100D40002F5F3F4F318320838C93268137812F5F24
:100D50003F4F3783268314C08B01EC01FB010084D5
:100D6000F185E02D0995892BE1F6D80116968D9134
:100D70009C911797019617969C938E931697CE0188
:100D8000DF91CF911F910F910895FA01AA27283082
:100D900051F1203181F1E8946F936E7F6E5F7F4F48
:100DA0008F4F9F4FAF4FB1E03ED0B4E03CD0670FC4
:100DB000781F891F9A1FA11D680F791F8A1F911D17
:100DC000A11D6A0F711D811D911DA11D20D009F467
:100DD00068943F912AE0269F11243019305D3193A9
:100DE000DEF6CF010895462F4770405D4193B3E092
:100DF0000FD0C9F7F6CF462F4F70405D4A3318F039
:100E0000495D31FD4052419302D0A9F7EACFB4E0E9
:100E1000A6959795879577956795BA95C9F70097A1
:100E20006105710508959B01AC010A2E0694579542
:100E3000479537952795BA95C9F7620F731F841F99
:100E4000951FA01D08952F923F924F925F926F922F
:100E50007F928F929F92AF92BF92CF92DF92EF924A
:100E6000FF920F931F93CF93DF93CDB7DEB7CA1BCB
:100E7000DB0B0FB6F894DEBF0FBECDBF09942A88F6
:100E8000398848885F846E847D848C849B84AA849E
:100E9000B984C884DF80EE80FD800C811B81AA812B
:100EA000B981CE0FD11D0FB6F894DEBF0FBECDBFF6
:080EB000ED010895F894FFCF55
:100EB8000000000200000000FD00000000007B00B0
:100EC800010F10117F8081FF00010F10117F8081B9
:100ED800FF00010F10117F8081FF00010F10117FAB
:100EE8008081FF00010F10117F8081FF2F2F205379
:100EF80074617274696E670054455354504F52546C
:100F0800206E6F7420616374696E67206C696B650D
:100F180020522F5720626974730030782530345876
:100F28002C00202F2F202B307825303378206D6926
:100F3800736D617463683B207461626C65207368CB
:100F48006F777320307825303458002F2F20506168
:100F580073736564002F2F204661696C6564000017
:00000001FF
